:100000000C94BC010C944B050C94E4010C94E40199
:100010000C94E4010C94E4010C94E4010C94E401CC
:100020000C94E4010C94E4010C9413020C948E02E1
:100030000C94E4010C94E4010C94E4010C94E401AC
:100040000C94E4010C94E4010C94E4010C94E4019C
:100050000C94E4010C94E4010C94E4010C94E4018C
:100060000C94E4010C94E4010C94E4010C94E4017C
:100070000C94E4010C94E4010C94E4010C94E4016C
:100080000C94E4010C94E4010C94E4010C94E4015C
:100090000C94E4010C94E4010003CC01010401037D
:1000A000DA01013202030000020A03030C020144D8
:1000B0000403500201520503A202015C0001FE028A
:1000C00001120002340301220022FA00016400013F
:1000D0001003011200025603012200225E01016E8C
:1000E00000012203011200025603012200225E01D8
:1000F000016E01C102000000000005010904A10118
:100100000901A1009502750A1600FE26FF013500BF
:1001100046FF03A4093009318102950175091600D3
:10012000FF26FF00452E6514093581027504150070
:100130002507463B01093981429504750125014592
:100140000165000509190129048102C01905290862
:100150008102B495010936810275058101C005014E
:100160000904A1010901A1009502750A1600FE26E5
:10017000FF01350046FF0309300931810295017501
:100180000415002507463B016514093981427506AF
:1001900015E0251F452E09358102950475011500CE
:1001A000250145016500A40509190129048102C042
:1001B0009505190529098102B49501750715C02512
:1001C0003F457F0936810275028101C0040309049D
:1001D0000A0330003300300033003203440065006E
:1001E00074006C006500660020003C00470072004F
:1001F00065006E00640065006C003E0020004D004C
:10020000750065006C006C006500720044034D00D1
:100210006900630072006F0073006F006600740075
:1002200020005300690064006500570069006E00FB
:10023000640065007200200033004400200050007C
:1002400072006F0020002800550053004200290072
:1002500052034D006900630072006F0073006F006D
:1002600066007400200053006900640065005700B8
:1002700069006E006400650072002000500072008A
:10028000650063006900730069006F006E00200064
:10029000500072006F0020002800550053004200FB
:1002A00029005C034D006900630072006F00730059
:1002B0006F00660074002000530069006400650050
:1002C000570069006E00640065007200200046005F
:1002D0006F00720063006500200046006500650045
:1002E00064006200610063006B0020005000720037
:1002F0006F00200028005500530042002900120121
:100300000002000000408B1EDEC000040103020159
:1003100012010002000000408B1EE0C00004010436
:10032000020112010002000000408B1EE1C0000427
:1003300001050201090222000101008032090400C6
:1003400000010300000009211101000122640007DF
:10035000058103080005090222000101008032091D
:100360000400000103000000092111010001226EB8
:10037000000705810308000511241FBECFEFD0E25E
:10038000DEBFCDBF14BE88E10FB6F8948093600045
:10039000109260000FBE11E0A0E0B1E0EEE7FEE0D9
:1003A00000E00BBF02C007900D92A030B107D9F753
:1003B00011E0A0E0B1E001C01D92AC36B107E1F759
:1003C0000E9490060C943D070C9400009FB7F8948F
:1003D00080910001882311F49FBF089581E08093EC
:1003E000E9008091E80082958695877080958170FC
:1003F0009FBF0895FC019FB7F89480910001882366
:1004000011F49FBF089581E08093E90004C08191B9
:100410008093F10061506623D1F78AE38093E8006E
:100420009FBF81E008951F920F920FB60F92112483
:100430008F938091E1001092E10083FF0FC0109232
:10044000E90081E08093EB001092EC0082E380935E
:10045000ED0088E08093F000109200018F910F90E2
:100460000FBE0F901F9018959C0109C0FB0185914C
:10047000949141508217930731F06A5F7F4F442374
:10048000A9F760E070E0CB010895BF92CF92DF92B0
:10049000EF92FF920F931F93CF93DF937C01D62EA1
:1004A000C42E8EEFB82E8091E800282F30E0C901CD
:1004B00085709070892BB9F322FD26C01D2D80E434
:1004C0008D1508F410E4E701012F14C0CC2011F4BD
:1004D00088810CC0E1E0CE1619F4FE01849106C0BB
:1004E000F2E0CF1629F4CE010E9427078093F10095
:1004F00021960150002351F7E10EF11CB092E80063
:10050000D11A89F6103479F2DF91CF911F910F91B2
:10051000FF90EF90DF90CF90BF9008951F920F92C1
:100520000FB60F920BB60F9211240F931F932F93B8
:100530003F934F935F936F937F938F939F93AF936B
:10054000BF93CF93DF93EF93FF931092E9008091D5
:10055000E80083FFDFC04091F1003091F10080910D
:10056000F100C82FD0E02091F100922F80E0C82B3D
:10057000D92B8091F1008091F1001091F100009150
:10058000F10082EF8093E800363009F03DC0CE01E3
:1005900068E970E046E00E943402FC010097D9F45B
:1005A00080916101813021F4CE016CEB70E00CC0D0
:1005B000823021F4CE016EEC70E006C0833009F089
:1005C000A9C0CE0160EE70E043E00E943402FC015D
:1005D000009709F49FC0359664913597212F30E03C
:1005E000902F80E0282B392B2F3F310519F010F088
:1005F0002FEF30E0349644913297859194912617ED
:1006000008F061C0622F5FC0353061F48EEF8093D7
:10061000E8008091E80080FFFCCF9E0120682093D5
:10062000E3007BC0393051F5442309F073C08EEFED
:100630008093E800C093000182EF90E021E02093D6
:10064000E900FC010196E491E093EB00EE2369F0F0
:10065000AC014F5F5F4FFC0184918093EC00CA01B5
:100660000196FA0134913093ED002F5F273039F76E
:100670008EE78093EA001092EA004FC0383041F4D0
:10068000403809F047C0809100018093F10006C016
:10069000332341F41092F1001092F1008EEF809319
:1006A000E8003BC0313039F4413AA1F58AE591E0E8
:1006B0006091620107C0323049F4413A59F58BE646
:1006C00091E061E040E00E94450227C03A3011F518
:1006D000413201F58EEF8093E8005D2FDD2319F4A0
:1006E0001092630114C080916B01882351F04091F6
:1006F000630190E0841B91092D2F30E0821793074E
:1007000014F081E002C08D2F841B8093630150930D
:100710006B0103C081E28093EB00FF91EF91DF91C9
:10072000CF91BF91AF919F918F917F916F915F9189
:100730004F913F912F911F910F910F900BBE0F90F2
:100740000FBE0F901F901895CF93DF9380E090E03D
:100750000E9427078A3071F0C0E0D0E0FE01E0532C
:10076000FE4FE491CE016E2F0E942F072196CA30D2
:10077000D105A1F781E88093D70080EA8093D80063
:1007800086E189BD09B400FEFDCF80E98093D800E1
:100790001092E00088E08093E200DF91CF9108950D
:1007A00023B5216023BD909385008093840081E070
:1007B00086BBB09BFECF089593B5916093BD86BD77
:1007C00081E085BBA89BFECF08952498259884EFEF
:1007D0000E94DC03249A259A0895FC01918182816C
:1007E00098278081982783819827848198278581FD
:1007F0009827892F82958F708927982F969596959F
:100800009827892F8695892781700895FC0138E003
:1008100020E09191892F8295280F290F3150C9F737
:10082000822F90E08F709070892B09F431E0832F34
:1008300008955E9A81EC9FEF0E94D0035E9883E852
:100840009FEF0E94D003089580916101813041F4AF
:1008500089B18093010180E066E10E947E0604C0B8
:1008600080E060E10E944F06E898882389F4809137
:1008700002018F5F809302018B3028F0F89480E2B0
:100880008093D800FFCF80916101813041F511C084
:1008900010920201809161018130B9F480E591E00C
:1008A0000E940604882329F080E591E00E94E20579
:1008B0000895909101019095990F9E7180915E012C
:1008C000817E982B90935E01089582E591E00E94CD
:1008D000ED03882321F082E591E00E9495050895BB
:1008E00040E840BF209178003091790081E090E0AD
:1008F00002C0880F991F2A95E2F7846C80936400E8
:1009000089E08093650011B89FEF92B914B88FEC1D
:1009100085B917B898B980E48AB99BB91DB89EB952
:1009200010BA91BB409361001092610093E095BDB5
:1009300085E080938100909369008BEC93EF0E9497
:10094000D00396E0D92E88E0E82E0E9419048BECA3
:1009500093EF0E94D00380E06EE70E944F060E9452
:1009600019048091590180915901813121F08091C0
:1009700059018133A9F519B1F090590180915901BC
:100980009D2D981B892F6EE70E944F0683E89FEFED
:100990000E94D0030091590180E060E10E944F065F
:1009A000882309F470C082E591E00E94ED0388235A
:1009B00009F469C0802F8F19883241F08E3041F0E0
:1009C000882309F060C01F701F3011F482E001C05D
:1009D00083E08093610182E591E00E94950555C016
:1009E00080915901882321F5E8980E94E5038DED57
:1009F0000E94DC030E94E50388E20E94DC030E945F
:100A0000E50382E90E94DC030E94E50381EC9FEF8D
:100A10000E94D00380E06EE70E947E06809159011B
:100A2000882389F18091590181EC9FEF0E94D003C6
:100A300080915901803479F4809159016091590174
:100A400060569E2D981B892F0E947E0683E89FEF9B
:100A50000E94D00304C0809159018234A1F480E047
:100A600066E10E947E06882371F080E591E00E9495
:100A70000604882341F080E591E00E94E20581E0D0
:100A80008093610102C0E89860CFE898F8948FE005
:100A90008093010108955F935FB75F9357EE56BD52
:100AA0004F93AF93BF93B1E0A0915801509159017A
:100AB000452F53955093590159B15295507E477027
:100AC00069F04530B9F0423069F04330F1F046301A
:100AD000E9F04130E1F04430D9F01BC05295569511
:100AE0005E931AC0550F4C91542B5C935527551F9C
:100AF0005E9312C057FB550F550F4C91542B5C93CE
:100B00005527551F51F95E9307C056955695569532
:100B100056954C91542B5C93A0935801BF91AF9183
:100B20004F915F915FBF5F911895DC0154E0A50F75
:100B30005C91509550FB5095A1503C91369557953E
:100B400050935A0142E0340F33705C91A1504C91A4
:100B5000469557955C7F532B50935B0138E0430FCC
:100B60004F70A2505C91550F550F5051507F542B30
:100B700050935C013C9142E0340F3370A3954C914B
:100B8000407F342B3295330F330F54E0A50F5C9127
:100B90005095569537955695379530935D0156F992
:100BA000A3504C9145FB57F950935E01A1505C91C5
:100BB00038E0530F5F70440F551F440F551F50937B
:100BC0005F010895DC0145E0A40F5C91A395A39516
:100BD0003C913873330F3295550F369557954EEF3C
:100BE000340F337050935A014C914770A3505C916D
:100BF000550F469557952EEF420F4370550F441FE2
:100C0000550F441F532B50935B01342FA2505C911E
:100C1000A3954C914871550F440F429546955795B1
:100C2000409540FB5295452F407F432B40935C01FC
:100C30005F7054F9352FA3505C91507747E0A40FB3
:100C40004C9146FB57F9505157FB550F532B50937E
:100C50005D01332730F9AA955C91A3504C9146FB76
:100C600057F950954427550F441F532B50935E015D
:100C7000342FA2505C91A395A3954C914770550FCA
:100C8000469557952EEF420F437057FB550F532B48
:100C900050935F01440F40F9409360010895482F3D
:100CA000362F8827F894E09AE89A2227489B2FEF5E
:100CB00051E053BD5CE956BDA89A2093590158E50F
:100CC0005093580178942498259850E05A95F1F75C
:100CD000249A259A50915901521719F4A89BFACFDA
:100CE000089550915901521B250F231728F44423CE
:100CF0008AF7450F7AF3E7CF83950895D0DF8823ED
:100D000071F050915901563151F4F8945527509390
:100D10005901509158015395509358017894089572
:100D20000E94700480916101813011F086E001C061
:100D300087E0809362010E94A40378942DE088E10B
:100D400090E00FB6F894A895809360000FBE2093B2
:100D5000600083E08093810085E085BD2091620181
:100D600010E00FC02150822F90E0FC01E65AFE4FA8
:100D7000E081DC01AC59BE4F8C918E1711F0EC93E1
:100D800011E0222379F7C8E1DCEF01E02AEBF22E33
:100D900093E0D92E85E0E82EA89580910001882364
:100DA00009F44DC0A89B1DC0D5BC0E942404E5BC1D
:100DB000F6BC05BB2091620130E00FC02150822FAC
:100DC00090E0FC01E65AFE4FE081DC01AC59BE4FD9
:100DD0008C918E1711F0EC9331E0222379F73111C9
:100DE00011E0B09B12C0D0938500C093840006BB75
:100DF00080916301815080936301882331F4809155
:100E00006B01882311F011E002C0112329F20E9426
:100E1000E601882309F0C0CF5E9A8AE591E06091EF
:100E200062010E94FA0180916B0180936301D0936B
:100E30008500C093840006BB5E9810E0ADCFD093D0
:100E40008500C093840006BBF6BC05BBA5CFF9990D
:100E5000FECF92BD81BDF89A992780B50895262FBF
:100E6000F999FECF1FBA92BD81BD20BD0FB6F8948F
:0E0E7000FA9AF99A0FBE01960895F894FFCFF2
:00000001FF
