:100000000C94C5010C94DC050C94E0010C94E00107
:100010000C94E0010C94E0010C94E0010C94E001DC
:100020000C94E0010C94E0010C942C020C94E70277
:100030000C94E0010C94E0010C94E0010C94E001BC
:100040000C94E0010C94E0010C94E0010C94E001AC
:100050000C94E0010C94E0010C94E0010C94E0019C
:100060000C94E0010C94E0010C94E0010C94E0018C
:100070000C94E0010C94E0010C94E0010C94E0017C
:100080000C94E0010C94E0010C94E0010C94E0016C
:100090000C94E0010C94E0010003DE010104010373
:1000A000E201013202030000020A03031E020144BE
:1000B0000403620201520503B402015C0001100353
:1000C0000112000246030122002158030109002207
:1000D0000C010164000122030112000268030122E5
:1000E00000217A03010900227001016E000134032E
:1000F000011200026803012200217A030109002293
:100100007001016E01C10200000000000501090438
:10011000A1010901A1009502750A1600FE26FF0142
:10012000350046FF03A409300931810295017509A4
:100130001600FF26FF00452E65140935810275045F
:1001400015002507463B01093981429504750125B3
:1001500001450165000509190129048102C019053D
:1001600029088102B495010936810275058101C013
:1001700005010904A1010901A1009502750A1600F3
:10018000FE26FF01350046FF030930093181029543
:1001900001750415002507463B01651409398142A4
:1001A000750615E0251F452E093581029504750158
:1001B0001500250145016500A405091901290481DF
:1001C00002C09505190529098102B4950175071525
:1001D000C0253F457F0936810275028101C00403B5
:1001E000090432034400650074006C006500660079
:1001F00020003C004700720065006E00640065004E
:100200006C003E0020004D00750065006C006C0025
:10021000650072000A0330003300330033004403EA
:100220004D006900630072006F0073006F0066008C
:1002300074002000530069006400650057006900E5
:100240006E0064006500720020003300440020004E
:10025000500072006F00200028005500530042003B
:10026000290052034D006900630072006F007300A3
:100270006F00660074002000530069006400650090
:10028000570069006E006400650072002000500095
:100290007200650063006900730069006F006E0002
:1002A0002000500072006F0020002800550053000D
:1002B000420029005C034D006900630072006F007A
:1002C00073006F0066007400200053006900640032
:1002D0006500570069006E00640065007200200030
:1002E00046006F0072006300650020004600650054
:1002F000650064006200610063006B002000500034
:1003000072006F00200028005500530042002900B1
:1003100012010002000000405E040200000401031C
:10032000020112010002000000405E04040000040B
:100330000104020112010002000000405E040500F9
:1003400000040105020109022200010100803209B6
:1003500004000001030000000921110100012264D2
:100360000007058103080002090222000101008044
:1003700032090400000103000000092111010001FD
:10038000226E000705810308000211241FBECFEF73
:10039000D0E1DEBFCDBF14BE88E10FB6F8948093E4
:1003A0006000109260000FBE11E0A0E0B1E001C05B
:1003B0001D92AE36B107E1F70E942E070C94450856
:1003C0000C9400002FB7F89480910001882319F451
:1003D00080E090E008C08091010190E0811191E0FF
:1003E00081E09827892F2FBF08959FB7F8948091B7
:1003F0000001882321F080910101882319F09FBF1B
:1004000080E0089581E08093E9008091E800829582
:1004100086958770809581709FBF0895FC019FB776
:10042000F89480910001882321F0809101018823B4
:1004300019F09FBF80E0089581E08093E90004C037
:1004400081918093F10061506623D1F78AE3809314
:10045000E8009FBF81E008951F920F920FB60F92A0
:1004600011248F939F938091E1001092E100982FC7
:1004700083FF10C01092E90081E08093EB0010929E
:10048000EC0082E38093ED0088E08093F00010920E
:1004900000013AC0809100018823C1F190FF19C08A
:1004A0008091E20080FF15C08091E2008E7F8093F2
:1004B000E2008091E20080618093E2008091D800A8
:1004C00080628093D80089B58D7F89BD81E080935B
:1004D000010194FF1BC08091E20084FF17C089B521
:1004E000826089BD09B400FEFDCF8091D8008F7D68
:1004F0008093D8008091E20081608093E200809137
:10050000E2008F7E8093E200109201019F918F9113
:100510000F900FBE0F901F9018959C0109C0FB0112
:100520008591949141508217930731F06A5F7F4F14
:100530004423A9F760E070E0CB010895BF92CF9209
:10054000DF92EF92FF920F931F93CF93DF937C0183
:10055000D62EC42E8EEFB82E8091E800282F30E0E2
:10056000C90185709070892BB9F322FD26C01D2D1D
:1005700080E48D1508F410E4E701012F14C0CC20AD
:1005800011F488810CC0E1E0CE1619F4FE018491CB
:1005900006C0F2E0CF1629F4CE010E942F08809306
:1005A000F10021960150002351F7E10EF11CB092A9
:1005B000E800D11A89F6103479F2DF91CF911F91BA
:1005C0000F91FF90EF90DF90CF90BF9008951F9212
:1005D0000F920FB60F9211240F931F932F933F93F7
:1005E0004F935F936F937F938F939F93AF93BF933B
:1005F000CF93DF93EF93FF931092E9008091E8008F
:1006000083FF12C15091F1004091F1008091F100FF
:10061000C82FD0E02091F100922F80E0C82BD92B79
:100620009091F1006091F1001091F1000091F100C2
:1006300082EF8093E800463009F03CC0CE0168E9C3
:1006400070E00E948D02FC010097D9F48091630153
:10065000813021F4CE016CEB70E00CC0823021F4CB
:10066000CE0164ED70E006C0833009F0DDC0CE013C
:100670006CEE70E044E00E948D02FC01009709F4EA
:10068000D3C0359664913597212F30E0902F80E0CC
:10069000282B392B2F3F310519F010F02FEF30E0C8
:1006A00034964491329785919491261708F095C01D
:1006B000622F93C0453061F48EEF8093E800809103
:1006C000E80080FFFCCF9E0120682093E300AFC0CC
:1006D000493029F5552369F58EEF8093E800C093E2
:1006E000000184E091E021E02093E900FC01019603
:1006F000E491E093EB00EE2369F0AC014F5F5F4FB4
:10070000FC0184918093EC00CA010196FA013491B6
:100710003093ED002F5F273039F78EE748C048301F
:1007200041F4503809F080C0809100018093F100BD
:100730001BC0292F30E0962F80E0282B392B442333
:10074000B9F4523869F42093E9008091EB0090E00D
:1007500025E0969587952A95E1F781701092E9003A
:100760008093F1001092F1008EEF8093E8005FC05B
:10077000413011F0433049F55230F1F42097E1F463
:100780002F77822F81508630B8F48EEF8093E80067
:100790002093E900433009F447C089E18093EB00DE
:1007A00081E090E002C0880F991F2A95E2F78093BC
:1007B000EA001092EA003BC0413039F4513AA1F509
:1007C0008CE591E06091640107C0423049F4513AF0
:1007D00059F58DE691E061E040E00E949E0227C05D
:1007E0004A3011F5513201F58EEF8093E8005D2F0C
:1007F000DD2319F41092650114C080916D018823E6
:1008000051F04091650190E0841B91092D2F30E05B
:100810008217930714F081E002C08D2F841B809310
:10082000650150936D0103C081E28093EB00FF915D
:10083000EF91DF91CF91BF91AF919F918F917F9178
:100840006F915F914F913F912F911F910F910F9059
:100850000FBE0F901F901895CF93DF9380E090E02C
:100860000E942F088A3071F0C0E0D0E0FE01EC5EFB
:10087000FD4FE491CE016E2F0E9437082196CA30B9
:10088000D105A1F781E88093D70080EA8093D80052
:100890008AE189BD09B400FEFDCF80E98093D800CC
:1008A0001092E00089E08093E200DF91CF910895FB
:1008B00023B5216023BD909385008093840081E05F
:1008C00086BBB09BFECF089593B5916093BD86BD66
:1008D00081E085BBA89BFECF08952498259884EFDE
:1008E0000E946404249A259A0895FC0191818281D2
:1008F00098278081982783819827848198278581EC
:100900009827892F82958F708927982F969596958D
:100910009827892F8695892781700895FC0138E0F2
:1009200020E09191892F8295280F290F3150C9F726
:10093000822F90E08F709070892B09F431E0832F23
:1009400008955E9881EC9FEF0E9458045E9A83E8B8
:100950009FEF0E945804089580916301813041F413
:1009600089B18093020180E066E10E94150704C00E
:1009700080E060E10E94E306E8988823A1F480917A
:1009800003018F5F809303018B3040F0F89481E086
:100990008093E00080E28093D800FFCF80916301D4
:1009A000813041F511C010920301809163018130C3
:1009B000B9F481E591E00E948E04882329F081E555
:1009C00091E00E9476060895909102019095990F0A
:1009D0009E7180916001817E982B909360010895B3
:1009E00083E591E00E947504882321F083E591E07E
:1009F0000E942906089540E840BF20917800309178
:100A0000790081E090E002C0880F991F2A95E2F7F3
:100A1000846C8093640089E08093650011B89FEF37
:100A200092B914B88FEC85B917B898B980E48AB92F
:100A30008FEB8BB91DB89EB910BA91BB80E090E0E6
:100A40000FB6F89440936100809361000FBE93E06D
:100A500095BD85E080938100909369008BEC93EFC6
:100A60000E94580496E0D92E88E0E82E0E94A10446
:100A70008BEC93EF0E94580480E06EE70E94E3063F
:100A80000E94A10480915B0180915B01813121F082
:100A900080915B018133A9F519B1F0905B018091E0
:100AA0005B019D2D981B892F6EE70E94E30683E86A
:100AB0009FEF0E94580400915B0180E060E10E947A
:100AC000E306882309F470C083E591E00E94750471
:100AD000882309F469C0802F8F19883241F08E3045
:100AE00041F0882309F060C01F701F3011F482E0CC
:100AF00001C083E08093630183E591E00E942906B1
:100B000055C080915B01882321F5E8980E946D040F
:100B10008DED0E9464040E946D0488E20E946404CA
:100B20000E946D0482E90E9464040E946D0481ECBD
:100B30009FEF0E94580480E06EE70E9415078091A5
:100B40005B01882389F180915B0181EC9FEF0E941A
:100B5000580480915B01803479F480915B0160914D
:100B60005B0160569E2D981B892F0E94150783E814
:100B70009FEF0E94580404C080915B018234A1F46D
:100B800080E066E10E941507882371F081E591E01D
:100B90000E948E04882341F081E591E00E94760650
:100BA00081E08093630102C0E89860CFE898F894F0
:100BB0008FE08093020108955F935FB75F9357EED4
:100BC00056BD4F93AF93BF93B0915A01A091590175
:100BD00050915B01452F539550935B0159B152954C
:100BE000507E477069F04530B9F0423069F04330CB
:100BF000F1F04630E9F04130E1F04430D9F01BC06B
:100C0000529556955E931AC0550F4C91542B5C9398
:100C10005527551F5E9312C057FB550F550F4C912A
:100C2000542B5C935527551F51F95E9307C0569579
:100C30005695569556954C91542B5C93A09359011B
:100C4000B0935A01BF91AF914F915F915FBF5F9198
:100C50001895DC0154E0A50F5C91509550FB509520
:100C6000A1503C913695579550935C0142E0340F6A
:100C700033705C91A1504C91469557955C7F532BF6
:100C800050935D0138E0430F4F70A2505C91550FB7
:100C9000550F5051507F542B50935E013C9142E0D0
:100CA000340F3370A3954C91407F342B3295330F22
:100CB000330F54E0A50F5C91509556953795569596
:100CC000379530935F0156F9A3504C9145FB57F986
:100CD00050936001A1505C9138E0530F5F70440F56
:100CE000551F440F551F509361010895DC0145E0E5
:100CF000A40F5C91A395A3953C913873330F329563
:100D0000550F369557954EEF340F337050935C0165
:100D10004C914770A3505C91550F469557952EEF17
:100D2000420F4370550F441F550F441F532B5093D0
:100D30005D01342FA2505C91A3954C914871550FE1
:100D4000440F429546955795409540FB5295452F47
:100D5000407F432B40935E015F7054F9352FA350C1
:100D60005C91507747E0A40F4C9146FB57F95051E6
:100D700057FB550F532B50935F01332730F9AA953A
:100D80005C91A3504C9146FB57F950954427550F61
:100D9000441F532B50936001342FA2505C91A395B4
:100DA000A3954C914770550F469557952EEF420FDE
:100DB000437057FB550F532B50936101440F40F97B
:100DC000409362010895482F362F8827F894E09ABF
:100DD000E89A2227489B2FEF51E053BD5CE956BDAE
:100DE000A89A20935B0159E55093590151E0509323
:100DF0005A0178942498259850E05A95F1F7249A4E
:100E0000259A50915B01521719F4A89BFACF0895C7
:100E100050915B01521B250F231728F444238AF7B6
:100E2000450F7AF3E7CF83950895CDDF8823A9F0A6
:100E300050915B01563189F4F894552750935B012A
:100E40005091590140915A0131E0530F3327431F0C
:100E50005093590140935A01789408950E94FB04DD
:100E600080916301813011F086E001C087E08093BA
:100E700064010E942C04789483E08093810085E0D3
:100E800085BD20916401FF2410C02150822F90E085
:100E9000FC01E45AFE4FE081DC01AA59BE4F8C915F
:100EA0008E1719F0EC93FF24F394222371F7C0E01E
:100EB000D0E011E068E1C62E6CEFD62E01E051EDD6
:100EC000E52E222423946624772448E1842E912C55
:100ED0003DE0332E2AE0522E98E1492E81E0A82EE3
:100EE000B12C01C010E0A8950E94E201882309F40A
:100EF00077C0112309F120E8C3010FB6F8942093BD
:100F00006100809361000FBE80916400877D8093B3
:100F1000640080916D0180936501E6BC05BBD092B1
:100F20008500C092840006BB0FB6F894A895809205
:100F300060000FBE30926000A89B21C083E085BD99
:100F40000E94AC0495E095BDE6BC05BB2091640110
:100F500030E00FC02150822F90E0FC01E45AFE4F98
:100F6000E081DC01AA59BE4F8C918E1711F0EC93F1
:100F700031E0222379F7332311F0FF24F394B09B5F
:100F800013C0D0928500C092840006BB8091650199
:100F9000815080936501882339F480916D01882305
:100FA00019F0FF24F39403C0FF2009F49BCF0E94A3
:100FB000F501882309F096CF5E988CE591E0609169
:100FC00064010E940E0280916D0180936501D092B0
:100FD0008500C092840006BB5E9A10E0FF2483CF98
:100FE00080910101882399F11123C9F40FB6F89477
:100FF00040926000109260000FBE80916400886291
:101000008093640020E8C5010FB6F8942093610036
:10101000809361000FBE50926501CFEFDFEF219703
:10102000A1F480916501815080936501882329F4A2
:101030005E9906C0509265015E9ACFEFDFEF05C062
:10104000209265015E98CEE1D0E011E04CCFD092C5
:101050008500C092840006BBE6BC05BB44CFF9996D
:10106000FECF92BD81BDF89A992780B50895262FAD
:10107000F999FECF1FBA92BD81BD20BD0FB6F8947D
:0E108000FA9AF99A0FBE01960895F894FFCFE0
:00000001FF
