:1000000040C1F6C360C15FC15EC15DC15CC15BC17F
:100010005AC159C158C157C156C124C554C153C151
:1000200052C151C150C104030904320344006500A8
:1000300074006C006500660020003C004700720000
:1000400065006E00640065006C003E0020004D00FD
:10005000750065006C006C00650072000501090404
:10006000A1010901A1009502750A1600FE26FF01F3
:10007000A4093009318102950175091600FF26FF98
:10008000000935810275041500250709398142955B
:1000900004750125010509190129048102C019050A
:1000A00029088102B495010936810275058101C0D4
:1000B00005010904A1010901A1009502750A1600B4
:1000C000FE26FF01093009318102950175041500F2
:1000D000250709398142750615E0251F093581027A
:1000E0009504750115002501A4050919012904814C
:1000F00002C09505190529098102B49501750715F6
:10010000C0253F0936810275028101C044034D00BC
:100110006900630072006F0073006F006600740076
:1001200020005300690064006500570069006E00FC
:10013000640065007200200033004400200050007D
:1001400072006F0020002800550053004200290073
:1001500052034D006900630072006F0073006F006E
:1001600066007400200053006900640065005700B9
:1001700069006E006400650072002000500072008B
:10018000650063006900730069006F006E00200065
:10019000500072006F0020002800550053004200FC
:1001A00029005C034D006900630072006F0073005A
:1001B0006F00660074002000530069006400650051
:1001C000570069006E006400650072002000460060
:1001D0006F00720063006500200046006500650046
:1001E00064006200610063006B0020005000720038
:1001F0006F00200028005500530042002900120122
:100200001001000000085E04020000030102030167
:1002100012011001000000085E0404000003010246
:10022000030112011001000000085E040500000334
:1002300001020301090222000101008032090400C9
:1002400000010300000009211101000122540007F0
:1002500005810307000A090222000101008032091A
:100260000400000103000000092111010001225CCB
:10027000000705810306000A0A033100320033003B
:10028000340011241FBECFE5D1E0DEBFCDBF14BEC8
:1002900088E10FB6F89481BD11BC0FBE10E0A0E656
:1002A000B0E0E8EEFEE002C005900D92A236B10784
:1002B000D9F711E0A2E6B0E001C01D92A630B10767
:1002C000E1F7B4D50FC69CCE85B7836085BF8BB7E9
:1002D00080648BBF8BE48093D4008AE58093D30045
:1002E00008951F93CF93DF939091E400935097FD6F
:1002F0008AC02091E1008091E0008D3209F081C038
:10030000983009F07EC0CCE0D0E0C21BD109C851C2
:10031000DF4F83EC8093C8008AE5809360001092E1
:1003200063008881807621F0CE016DD5282F60C0D2
:100330009A811092D1008981882321F41092D200F1
:1003400022E050C0853019F49093E5004AC0863011
:10035000A1F58B81813039F1823029F18330F9F4B4
:10036000992349F486E290E09093E3008093E200C1
:1003700080E424E01FC0913049F48AE290E0909339
:10038000E3008093E20080E422E314C0923059F04D
:10039000933071F4CE01B2D4282F80E00BC08132AB
:1003A00011F0823229F4CE01A9D4282F80E402C0B2
:1003B00080E420E0809363001BC0883021F421E0BA
:1003C00087EE90E011C0893019F49093E70009C0DE
:1003D0008A3011F421E006C08B3019F48BE480934D
:1003E000D40020E081ED90E09093E3008093E20060
:1003F0008F81882321F48E81821708F4282F20937F
:1004000061001092E4008091600084FF49C08091F7
:1004100061008F3F09F444C0182F893008F018E0BC
:10042000811B809361008091C80098E889278093A0
:10043000C800112341F12091E2003091E300809146
:10044000630086FF0DC0A9ECB0E080E090E0F90108
:10045000E80FF91FE491ED9301961817C1F708C052
:10046000912FD901E9ECF0E08D9181939150E1F762
:100470001150812F90E01F5F0196820F931F909380
:10048000E3008093E20089EC90E0612FADD1612F11
:100490006C5F6C3019F08FEF8093610060936000A7
:1004A00024E186B3887431F42150D9F71092E50025
:1004B0001092DF0090E0222309F491E08091620025
:1004C000891731F0992311F01092E70090936200A0
:1004D000DF91CF911F9108951F93DC01162F80911A
:1004E000D30084FF07C08091D40098E889278093C7
:1004F000D40003C08AE58093D300912FE5EDF0E0AE
:100500008D91819391501916DCF385ED90E0612F68
:100510006BD11C5F1093D3001F9108952DE023BF72
:1005200094BB82BF82E088BF08B601FEFDCF08956C
:100530009BE093BF9FEF94BB82BF82E088BF08B669
:1005400001FEFDCF0895D198D0988FEB8A95F1F7F1
:10055000D19AD09A0895FC01918182819827808157
:100560009827838198278481982785819827892FC8
:1005700082958F708927982F969596959827892F21
:100580008695892781700895FC0138E020E09191DB
:10059000892F8295280F290F3150C9F7822F90E0BB
:1005A0008F709070892B09F431E0832F0895DC98C7
:1005B00081ED9FEFB3DFDC9A82EA9FEFAFDF089512
:1005C000F89483E18ABB84EF8BBB17BA87E888BBBA
:1005D000FFCF80910501813039F489B380936400A5
:1005E00080E066E179D303C080E060E13FD3982FDB
:1005F0008BB78F778BBF992369F4809165008F5FEC
:10060000809365008B3008F0DBDF8091050181303D
:1006100049F510C010926500809105018130C9F440
:1006200083EB90E0B1DF882329F0DC9883EB90E046
:10063000B0D208959091640092FB94F990959295B0
:10064000990F9E7180910201817E982B90930201F7
:10065000089585EB90E07FDF882321F0DC9885EB1F
:1006600090E04AD2089590E898B917BA87E888BB15
:1006700083E18ABB84EF8BBB95BB83E085BF88EDAC
:1006800096EF4CDF33E0C32E28E0D22E90DF88EDCA
:1006900096EF44DF80E06EE7E9D289DF8091BC000D
:1006A0008091BC00813121F08091BC00813399F5AB
:1006B00019B3F090BC008091BC0093E0E92E9C2D12
:1006C000981B892F6EE7D2D282EA9FEF27DF009135
:1006D000BC0080E060E1CAD2882309F462C085EBE7
:1006E00090E039DF882309F45CC0802F8F198832AD
:1006F00041F08E3051F0882309F053C0147E143E2F
:1007000021F482E08093050102C0E092050185EBAF
:1007100090E0F2D14AC08091BC008823E1F48BB70D
:100720008F778BBF10DF86EE03DF0DDF8EE500DFF6
:100730000ADF8DEAFDDE07DF81ED9FEFEFDE80E06F
:100740006EE7CAD28091BC00882359F18091BC0029
:1007500081ED9FEFE3DE8091BC00803469F48091ED
:10076000BC006091BC0060569D2D981B892FB4D2AF
:1007700082EA9FEFD3DE04C08091BC00823489F40A
:1007800080E066E1A9D2882361F083EB90E0FCDE93
:10079000882339F083EB90E0FCD181E08093050160
:1007A00004C08BB78F778BBF71CF8BB78F778BBF21
:1007B000F89484EE809364008BE083BF0895A82FA3
:1007C000B92F80E090E041E050EA609530E009C048
:1007D0002D9182279795879510F084279527305E75
:1007E000C8F36F5FA8F30895EADF8D939D93089592
:1007F000CF93CFB7CF93C395B39BE9F7B39B09C012
:10080000B39B07C0B39B05C0B39B03C0B39B01C0A0
:10081000A3C0DF93C091E100DD27C851DF4FB39B38
:1008200002C0DF91EBCF2F930F931F9306B32FEFEF
:1008300003FB20F94F933F9316B34FEF012703FBC0
:1008400021F93BE031C04E7F012F16B3216028C053
:10085000102F4D7F2260000006B329C04B7F24601B
:10086000012F000016B32BC016B3477F28602AC0A3
:100870004F7E06B320612CC04F7D16B320622FC07F
:100880004F7B06B3206432C0422706B349934FEF33
:100890000000102713FB20F916B31874C9F1297F43
:1008A00091F2012703FB21F906B3237F89F231502E
:1008B00058F1102713FB22F916B3277E79F201278E
:1008C00003FB23F92F7C81F206B3102713FB24F9D5
:1008D0002F7971F200C016B3012703FB25F92F739E
:1008E00059F200C006B3102713FB26F9223040F25C
:1008F00000C016B3012703FB27F9243028F64F77F1
:10090000206816B30000F9CF10E41ABF002719C001
:100910003B503195C31BD04010E41ABF0881033C03
:10092000F9F00B34E9F02091DF001981110F121357
:10093000EDCF4A81441F093641F10D3211F0013EDD
:1009400029F70093E6003F914F911F910F912F914E
:10095000DF91CAB7C6FD4FCFCF91CFBFCF911895CA
:100960002091E600222379F31091E400112369F528
:1009700034306AF13093E4002093E0001091E100FC
:100980003BE0311B3093E10022C00091E4000130D4
:10099000E4F40AE54F7049F43091600034FD19C069
:1009A00000936000C8ECD0E018C03091D30034FD53
:1009B00010C00093D300C4EDD0E00FC02795A8F479
:1009C0005150A9F4220F0000F9CF4AE503C042EDCF
:1009D00001C0432FC4E1D0E032E017B31864C39ADA
:1009E00017BB08B320E418E45F93012756E008BB67
:1009F000279520F4515021F4220FF9CF012756E01A
:100A000000003B5A08BBD0F2279528F4515029F436
:100A1000220F0000F9CF012756E0279508BB20F4EC
:100A2000515021F4220FF9CF012756E029913323A9
:100A300008BB21F6077B1091E500110FC651D0408D
:100A400008BB11F01093DF0010E41ABF086017B361
:100A5000177B402F477B5F9100C000C008BB17BBCE
:100A600048BB71CF5F935FB778945F935DEE52BFE1
:100A70004F93AF93BF93B0E0A091BB005091BC00E7
:100A8000452F53955093BC0059B3507E477069F081
:100A90004530B9F0423069F04330F1F04630E9F0CA
:100AA0004130E1F04430D9F01BC0529556955E9329
:100AB0001AC0550F4C91542B5C935527551F5E93CC
:100AC00012C057FB550F550F4C91542B5C93552773
:100AD000551F51F95E9307C05695569556955695F4
:100AE0004C91542B5C93A093BB00BF91AF914F915D
:100AF0005F915FBF5F911895DC0154E0A50F5C9199
:100B0000509550FB5095A1503C9136955795509378
:100B1000FE0042E0340F33705C91A1504C91469539
:100B200057955C7F532B5093FF0038E0430F4F7075
:100B3000A2505C91550F550F5051507F542B50933C
:100B400000013C9142E0340F3370A3954C91407FFB
:100B5000342B3295330F330F54E0A50F5C91509531
:100B600056953795569537953093010156F9A35010
:100B70004C9145FB57F950930201A1505C9138E02C
:100B8000530F5F70440F551F440F551F50930301BF
:100B90000895DC0145E0A40F5C91A395A3953C91D9
:100BA0003873330F3295550F369557954EEF340FF6
:100BB00033705093FE004C914770A3505C91550FD9
:100BC000469557952EEF420F4370550F441F550F12
:100BD000441F532B5093FF00342FA2505C91A395D8
:100BE0004C914871550F440F429546955795409545
:100BF00040FB5295452F407F432B409300015F708F
:100C000054F9352FA3505C91507747E0A40F4C91D5
:100C100046FB57F9505157FB550F532B5093010189
:100C2000332730F9AA955C91A3504C9146FB57F9B4
:100C300050954427550F441F532B50930201342FD6
:100C4000A2505C91A395A3954C914770550F469582
:100C500057952EEF420F437057FB550F532B509370
:100C60000301440F40F9409304010895482F362FA3
:100C7000882750E85ABF5BB750685BBFF8942227BB
:100C8000CA9B2FEF5BE053BF52E058BF5FEF54BBEE
:100C900055EB52BF2093BC005BEB5093BB007894A4
:100CA000D198D09850EC5A95F1F7D19AD09A5091AA
:100CB000BC00521721F458B751FFF9CF0895509155
:100CC000BC00521B250F231728F4442382F7450F3D
:100CD00072F3E6CF83950895C9DF882371F05091B0
:100CE000BC00563151F4F89455275093BC005091F4
:100CF000BB0053955093BB0078940895FC0181810B
:100D0000863009F07EC08381833091F1843030F4E5
:100D1000813059F0823009F074C01BC0813209F46F
:100D20004DC0823209F06DC058C0809105018130FC
:100D300019F48EEF91E007C0823019F480E192E05F
:100D400002C082E292E09093E3008093E20082E1AD
:100D5000089580910501813019F484E392E002C086
:100D600086E592E09093E3008093E20082E20895AA
:100D700082818230C9F480910501813041F48CE098
:100D800091E09093E3008093E20084E40895823040
:100D900041F480E591E09093E3008093E20082E5E6
:100DA000089582EA91E027C0833059F58EEB90E0F8
:100DB0009093E3008093E2008AE00895809105011A
:100DC000813019F486E492E002C088E692E09093C4
:100DD000E3008093E20089E008958091050181306D
:100DE00041F48CE590E09093E3008093E20084E589
:100DF000089580EB90E09093E3008093E2008CE50F
:100E0000089580E00895FC0180818076803261F44D
:100E10008181813049F48EEF90E09093E3008093DC
:100E2000E2008091BD00089580E008951CDCE19906
:100E3000FECF1EBAE09A8DB38A3091F0E8E7F2E077
:100E400080E09491E199FECF1CBA8EBB9DBB0FB69A
:100E5000F894E29AE19A0FBE31968F5F8A3089F753
:100E600090E0EEEBF0E0E199FECF9EBBE09A8DB30F
:100E700081939F5F9A30B9F727DA8091050181301D
:100E800011F086E001C087E08093BD002DE088E18D
:100E900090E00FB6F894A89581BD0FBE21BD78945F
:100EA000D39ADB9A8AEFF82E0DEC12E0A89519DAA6
:100EB0008091E700882391F08091D30084FD03C0E6
:100EC000F4BA02BF0DC008B601FEF0CF82DB8EEF90
:100ED00090E06091BD0000DBDC9AE8CF14BA12BE4E
:080EE00018BFE4CFF894FFCF26
:020EE8005AFFAF
:00000001FF
