:1000000040C10FC448C558C157C156C155C154C19C
:1000100053C152C151C150C14FC14EC14DC14CC15C
:100020004BC14AC149C104030904320344006500BD
:1000300074006C006500660020003C004700720000
:1000400065006E00640065006C003E0020004D00FD
:10005000750065006C006C00650072000501090404
:10006000A1010901A1009502750A1600FE26FF01F3
:10007000A4093009318102950175091600FF26FF98
:10008000000935810275041500250709398142955B
:1000900004750125010509190129048102C019050A
:1000A00029088102B495010936810275058101C0D4
:1000B00005010904A1010901A1009502750A1600B4
:1000C000FE26FF01093009318102950175041500F2
:1000D000250709398142750615E0251F093581027A
:1000E0009504750115002501A4050919012904814C
:1000F00002C09505190529098102B49501750715F6
:10010000C0253F0936810275028101C044034D00BC
:100110006900630072006F0073006F006600740076
:1001200020005300690064006500570069006E00FC
:10013000640065007200200033004400200050007D
:1001400072006F0020002800550053004200290073
:1001500052034D006900630072006F0073006F006E
:1001600066007400200053006900640065005700B9
:1001700069006E006400650072002000500072008B
:10018000650063006900730069006F006E00200065
:10019000500072006F0020002800550053004200FC
:1001A00029005C034D006900630072006F0073005A
:1001B0006F00660074002000530069006400650051
:1001C000570069006E006400650072002000460060
:1001D0006F00720063006500200046006500650046
:1001E00064006200610063006B0020005000720038
:1001F0006F00200028005500530042002900120122
:100200001001000000085E04020000030102030167
:1002100012011001000000085E0404000003010246
:10022000030112011001000000085E040500000334
:1002300001020301090222000101008032090400C9
:1002400000010300000009211101000122540007F0
:1002500005810307000A090222000101008032091A
:100260000400000103000000092111010001225CCB
:10027000000705810306000A0A033100320033003B
:10028000340011241FBECFE5D4E0DEBFCDBF10E0A7
:10029000A0E6B0E0E4E2FFE002C005900D92A236D5
:1002A000B107D9F711E0A2E6B0E001C01D92A63077
:1002B000B107E1F7D3D534C6A3CE85B7836085BF38
:1002C0008BB780648BBF8BE48093D4008AE58093E6
:1002D000D30008951F93CF93DF939091E400935040
:1002E00097FD8AC02091E1008091E0008D3209F0F5
:1002F00081C0983009F07EC0CCE0D0E0C21BD109AB
:10030000C851DF4F83EC8093C8008AE5809360007A
:10031000109263008881807621F0CE018CD5282F41
:1003200060C09A811092D1008981882321F41092B3
:10033000D20022E050C0853019F49093E5004AC005
:100340008630A1F58B81813039F1823029F18330FB
:10035000F9F4992349F486E290E09093E3008093C6
:10036000E20080E424E01FC0913049F48AE290E08A
:100370009093E3008093E20080E422E314C0923083
:1003800059F0933071F4CE01D1D4282F80E00BC006
:10039000813211F0823229F4CE01C8D4282F80E4B2
:1003A00002C080E420E0809363001BC0883021F409
:1003B00021E087EE90E011C0893019F49093E700B6
:1003C00009C08A3011F421E006C08B3019F48BE4A7
:1003D0008093D40020E081ED90E09093E30080933F
:1003E000E2008F81882321F48E81821708F4282F60
:1003F000209361001092E4008091600084FF49C066
:10040000809161008F3F09F444C0182F893008F0B3
:1004100018E0811B809361008091C80098E88927CB
:100420008093C800112341F12091E2003091E30054
:100430008091630086FF0DC0A9ECB0E080E090E001
:10044000F901E80FF91FE491ED9301961817C1F730
:1004500008C0912FD901E9ECF0E08D918193915082
:10046000E1F71150812F90E01F5F0196820F931FDB
:100470009093E3008093E20089EC90E0612FCDD16E
:10048000612F6C5F6C3019F08FEF80936100609387
:10049000600024E186B3837031F42150D9F71092C3
:1004A000E5001092DF0090E0222309F491E08091B2
:1004B0006200891731F0992311F01092E7009093B0
:1004C0006200DF91CF911F9108951F93DC01162FD9
:1004D0008091D30084FF07C08091D40098E88927D9
:1004E0008093D40003C08AE58093D300912FE5ED7B
:1004F000F0E08D91819391501916DCF385ED90E039
:10050000612F8BD11C5F1093D3001F91089521E0C0
:1005100020BF9DBD8CBD84E088BF08B602FEFDCF24
:10052000089592E090BF84BD80E488BF08B606FEBF
:10053000FDCF089581E080BF81ED9FEF9DBD8CBD13
:1005400084E088BF90980000909A04C0989902C0F7
:1005500081E0089508B602FEF9CF80E00895FC011D
:10056000918182819827808198278381982784812F
:10057000982785819827892F82958F708927982FB2
:10058000969596959827892F869589278170089545
:10059000FC0138E020E09191892F8295280F290FE6
:1005A0003150C9F7822F90E08F709070892B09F439
:1005B00031E0832F0895919881ED9FEFA8DF919A04
:1005C00082EA9FEFA4DF0895F89417BA88E388BB06
:1005D000FFCF98991FC008B600FC08C08091650045
:1005E0008F5F809365008B3020F01BC080B38093B9
:1005F000640080910501813021F480E066E184D3BC
:1006000003C080E060E14BD3982F8BB78F778BBF0F
:10061000992369F4809165008F5F809365008B302A
:1006200008F0D2DF80910501813039F510C01092B9
:100630006500809105018130B9F483EB90E0A8DF7B
:10064000882329F0919883EB90E0BCD20895909193
:10065000640090959295990F9E7180910201817E20
:10066000982B90930201089585EB90E078DF882322
:1006700021F0919885EB90E058D2089580E888B9F0
:1006800017BA88E388BB14BA8FE785BB83E081BBC8
:1006900083EF82BB87E083BF85E08EBD84E085BDAC
:1006A0008FE085BF88ED96EF32DF33E0C32E28E080
:1006B000D22E81DF88ED96EF2ADF3CDF8823C9F355
:1006C0007ADF80E06EE7EBD276DF8091BC0080912C
:1006D000BC00813121F08091BC00813399F510B3C9
:1006E000F090BC008091BC0093E0E92E9C2D981BFB
:1006F000892F6EE7D4D282EA9FEF09DF0091BC0018
:1007000080E060E1CCD2882309F464C085EB90E0FE
:1007100026DF882309F45EC0802F8F19883241F0CC
:100720008E3051F0882309F055C0107F103F21F41E
:1007300082E08093050102C0E092050185EB90E024
:10074000F4D14CC08091BC008823F1F48BB78F7733
:100750008BBFF0DE8823F1F186EEE3DEEBDE8EE583
:10076000E0DEE8DE8DEADDDEE5DE81ED9FEFCFDE67
:1007700080E06EE7C9D28091BC00882359F1809156
:10078000BC0081ED9FEFC3DE8091BC00803469F432
:100790008091BC006091BC0060569D2D981B892FF4
:1007A000B3D282EA9FEFB3DE04C08091BC008234F2
:1007B00089F480E066E1A8D2882361F083EB90E0C1
:1007C000E7DE882339F083EB90E0FCD181E0809371
:1007D000050104C08BB78F778BBF6BCF8BB78F773B
:1007E0008BBFF89480EF8093640083E08EBD089502
:1007F000A82FB92F80E090E041E050EA609530E00A
:1008000009C02D9182279795879510F08427952709
:10081000305EC8F36F5FA8F30895EADF8D939D9370
:100820000895CF93CFB7CF93C395B09BE9F7B09B13
:1008300009C0B09B07C0B09B05C0B09B03C0B09B74
:1008400001C0A3C0DF93C091E100DD27C851DF4F95
:10085000B09B02C0DF91EBCF2F930F931F9306B392
:100860002FEF00FB20F94F933F9316B34FEF012773
:1008700000FB21F93BE031C04E7F012F16B3216010
:1008800028C0102F4D7F2260000006B329C04B7F87
:100890002460012F000016B32BC016B3477F2860D9
:1008A0002AC04F7E06B320612CC04F7D16B3206254
:1008B0002FC04F7B06B3206432C0422706B3499352
:1008C0004FEF0000102710FB20F916B31370C9F189
:1008D000297F91F2012700FB21F906B3237F89F2DA
:1008E000315058F1102710FB22F916B3277E79F208
:1008F000012700FB23F92F7C81F206B3102710FBA0
:1009000024F92F7971F200C016B3012700FB25F9F5
:100910002F7359F200C006B3102710FB26F92230BE
:1009200040F200C016B3012700FB27F9243028F657
:100930004F77206816B30000F9CF10E41ABF0027E4
:1009400019C03B503195C31BD04010E41ABF088139
:10095000033CF9F00B34E9F02091DF001981110F0D
:100960001213EDCF4A81441F093641F10D3211F0C7
:10097000013E29F70093E6003F914F911F910F919F
:100980002F91DF91CAB7C6FD4FCFCF91CFBFCF9187
:1009900018952091E600222379F31091E4001123A9
:1009A00069F534306AF13093E4002093E00010914F
:1009B000E1003BE0311B3093E10022C00091E400F4
:1009C0000130E4F40AE54F7049F43091600034FDE1
:1009D00019C000936000C8ECD0E018C03091D3007B
:1009E00034FD10C00093D300C4EDD0E00FC02795B4
:1009F000A8F45150A9F4220F0000F9CF4AE503C032
:100A000042ED01C0432FC4E1D0E032E017B31360E0
:100A1000C09A17BB08B320E413E05F93012756E0A8
:100A200008BB279520F4515021F4220FF9CF01275C
:100A300056E000003B5A08BBD0F2279528F45150ED
:100A400029F4220F0000F9CF012756E0279508BBB3
:100A500020F4515021F4220FF9CF012756E02991BB
:100A6000332308BB21F60C7F1091E500110FC6510E
:100A7000D04008BB11F01093DF0010E41ABF0160F2
:100A800017B31C7F402F4C7F5F9100C000C008BB94
:100A900017BB48BB71CF5F935FB778945F935DEEF0
:100AA00054BD4F93AF93BF93B0E0A091BB00509162
:100AB000BC00452F53955093BC0050B3507E4770F7
:100AC00069F04530B9F0423069F04330F1F046301A
:100AD000E9F04130E1F04430D9F01BC05295569511
:100AE0005E931AC0550F4C91542B5C935527551F9C
:100AF0005E9312C057FB550F550F4C91542B5C93CE
:100B00005527551F51F95E9307C056955695569532
:100B100056954C91542B5C93A093BB00BF91AF9121
:100B20004F915F915FBF5F911895DC0154E0A50F75
:100B30005C91509550FB5095A1503C91369557953E
:100B40005093FE0042E0340F33705C91A1504C9101
:100B5000469557955C7F532B5093FF0038E0430F29
:100B60004F70A2505C91550F550F5051507F542B30
:100B7000509300013C9142E0340F3370A3954C91A7
:100B8000407F342B3295330F330F54E0A50F5C9127
:100B9000509556953795569537953093010156F9EE
:100BA000A3504C9145FB57F950930201A1505C9121
:100BB00038E0530F5F70440F551F440F551F50937B
:100BC00003010895DC0145E0A40F5C91A395A39572
:100BD0003C913873330F3295550F369557954EEF3C
:100BE000340F33705093FE004C914770A3505C91CA
:100BF000550F469557952EEF420F4370550F441FE2
:100C0000550F441F532B5093FF00342FA2505C917B
:100C1000A3954C914871550F440F429546955795B1
:100C2000409540FB5295452F407F432B4093000158
:100C30005F7054F9352FA3505C91507747E0A40FB3
:100C40004C9146FB57F9505157FB550F532B50937E
:100C50000101332730F9AA955C91A3504C9146FBD2
:100C600057F950954427550F441F532B50930201B9
:100C7000342FA2505C91A395A3954C914770550FCA
:100C8000469557952EEF420F437057FB550F532B48
:100C900050930301440F40F9409304010895482FF5
:100CA000362F882750E85ABF5BB750685BBFF8946F
:100CB0002227849B2FEF532F5195520F52BF52E0A2
:100CC00050BF51E458BF55EB54BD2093BC005BEBC3
:100CD0005093BB00F89490980000909A78945091AB
:100CE000BC00521721F458B756FFF9CF0895509120
:100CF000BC00521B250F231728F4442382F7450F0D
:100D000072F3E8CF83950895CADF882371F050917C
:100D1000BC00563151F4F89455275093BC005091C3
:100D2000BB0053955093BB0078940895FC018181DA
:100D3000863009F07EC08381833091F1843030F4B5
:100D4000813059F0823009F074C01BC0813209F43F
:100D50004DC0823209F06DC058C0809105018130CC
:100D600019F48EEF91E007C0823019F480E192E02F
:100D700002C082E292E09093E3008093E20082E17D
:100D8000089580910501813019F484E392E002C056
:100D900086E592E09093E3008093E20082E208957A
:100DA00082818230C9F480910501813041F48CE068
:100DB00091E09093E3008093E20084E40895823010
:100DC00041F480E591E09093E3008093E20082E5B6
:100DD000089582EA91E027C0833059F58EEB90E0C8
:100DE0009093E3008093E2008AE0089580910501EA
:100DF000813019F486E492E002C088E692E0909394
:100E0000E3008093E20089E008958091050181303C
:100E100041F48CE590E09093E3008093E20084E558
:100E2000089580EB90E09093E3008093E2008CE5DE
:100E3000089580E00895FC0180818076803261F41D
:100E40008181813049F48EEF90E09093E3008093AC
:100E5000E2008091BD00089580E008950FDCE199E3
:100E6000FECF1FBA1EBAE09A8DB38A30A1F080E09F
:100E700090E0FC01E858FD4F2491E199FECF9FBB23
:100E80008EBB2DBB0FB6F894E29AE19A0FBE019685
:100E90008A30910571F720E030E0EEEBF0E0E19967
:100EA000FECF3FBB2EBBE09A8DB381932F5F3F4FA8
:100EB0002A303105A1F701DA80910501813011F066
:100EC00086E001C087E08093BD002DE088E190E0DE
:100ED0000FB6F894A89581BD0FBE21BD7894BA9A3B
:100EE000C29ACDECDAEF14E0A895F4D98091E7002E
:100EF000882391F08091D30084FD03C0DDBDCCBD7B
:100F00000DC008B602FEF0CF64DB8EEF90E060917A
:100F1000BD00DBDA919AE8CF1DBC1CBC18BFE4CF42
:100F2000F894FFCF5AFFFFFFFFFFFFFFFFFFFFFF18
:100F3000FFFFFFFFFFFFFFFFFFFFFFFFFFFFFFFFC1
:100F4000FFFFFFFFFFFFFFFFFFFFFFFFFFFFFFFFB1
:100F5000FFFFFFFFFFFFFFFFFFFFFFFFFFFFFFFFA1
:100F6000FFFFFFFFFFFFFFFFFFFFFFFFFFFFFFFF91
:101800004CC080C065C064C063C062C061C060C0BD
:101810005FC05EC05DC05CC05BC05AC059C058C0EC
:1018200057C056C055C00403090412036F0062007C
:101830006400650076002E0061007400100348000B
:101840004900440042006F006F0074001201100153
:1018500000000008C016DF050001010200010902B6
:101860001B00010100803209040000000300000099
:101870000921010100012221000600FF0901A10147
:10188000150026FF007508850195060900B20201C2
:10189000850295830900B20201C011241FBECFE565
:1018A000D4E0DEBFCDBF10E0A0E6B0E0ECE1FFE1A8
:1018B00002C005900D92AA36B107D9F710E0AAE64A
:1018C000B0E001C01D92AD39B107E1F7DED224C30B
:1018D00097CFA82FB92F80E090E041E050EA6095C3
:1018E0006F5F58F42D9138EF82279795879510F008
:1018F000842795273F5FC8F3F3CF0895EADF8D93E0
:101900009D930895CF93CFB7CF93C395B09BE9F73D
:10191000B09B09C0B09B07C0B09B05C0B09B03C083
:10192000B09B01C0A1C0DF93C0918000DD27C957E3
:10193000DF4FB09B02C0DF91EBCF2F930F931F932C
:1019400006B32FEF00FB20F94F933F9316B34FEFF1
:10195000012700FB21F93BE031C04E7F012F16B378
:10196000216028C0102F4D7F2260000006B329C0DF
:101970004B7F2460012F000016B32BC016B3477FA6
:1019800028602AC04F7E06B320612CC04F7D16B35D
:1019900020622FC04F7B06B3206432C0422706B3BB
:1019A00049934FEF0000102710FB20F916B3137076
:1019B000C9F1297F91F2012700FB21F906B3237FAA
:1019C00089F2315058F1102710FB22F916B3277E07
:1019D00079F2012700FB23F92F7C81F206B310274F
:1019E00010FB24F92F7971F200C016B3012700FB18
:1019F00025F92F7359F200C006B3102710FB26F902
:101A0000223040F200C016B3012700FB27F9243032
:101A100028F64F77206816B30000F9CF10E41ABFFC
:101A2000002717C03B503195C31BD04010E41ABFAC
:101A30000881033CE9F00B34D9F020917E00198134
:101A4000110F1213EDCF093641F10D3211F0013EA5
:101A500039F7009385003F914F911F910F912F917E
:101A6000DF91CAB7C6FD51CFCF91CFBFCF911895A7
:101A700020918500222379F310918300112311F521
:101A8000343012F13093830020937F001091800056
:101A90003BE0311B3093800017C000918300013080
:101AA0008CF40AE53091600034FD10C000936000B2
:101AB000C3E7D0E00FC02795A8F45150A9F4220F36
:101AC0000000F9CF4AE503C042ED01C0432FC4E155
:101AD000D0E032E017B31360C09A17BB08B320E41C
:101AE00013E05F93012756E008BB279520F451507F
:101AF00021F4220FF9CF012756E000003B5A08BB22
:101B0000D0F2279528F4515029F4220F0000F9CF84
:101B1000012756E0279508BB20F4515021F4220FED
:101B2000F9CF012756E02991332308BB21F60C7F1A
:101B300010918400110FC651D04008BB11F01093D2
:101B40007E0010E41ABF016017B31C7F402F4C7F4A
:101B50005F9100C000C008BB17BB48BB7CCF21E031
:101B600020BF9DBD8CBD84E088BF08B602FEFDCFBE
:101B700008951F93CF93DF9360918300962F935026
:101B800097FD28C180918000CCE0D0E0C81BD1092E
:101B9000C957DF4F80917F008D3209F0A8C098307F
:101BA00009F016C183EC809373008AE5809360008E
:101BB00010926A009881892F8076C1F089818930DE
:101BC00049F48A818093620010926F0097FD83C070
:101BD000AFEF82C0813011F020E079C083E690E061
:101BE000909382008093810027E071C09A811092C7
:101BF0007C008981882321F410927D0022E061C05D
:101C0000853019F4909384005BC0863009F049C098
:101C10008B81813019F48CE498E11AC0823041F450
:101C20008EE598E190938200809381002BE135C08E
:101C30008330F1F4992341F486E298E19093820095
:101C40008093810024E029C0913041F48AE298E138
:101C5000909382008093810022E11FC09230E1F4D2
:101C60008CE398E1909382008093810020E115C07D
:101C7000813241F480E798E1909382008093810063
:101C800029E00BC0823241F489E798E19093820009
:101C90008093810021E201C020E080E480936A000B
:101CA00016C0883021F421E086E890E00CC089302D
:101CB00019F49093860004C08A3011F421E001C029
:101CC00020E08CE790E090938200809381008F81E8
:101CD000882331F008C0AE8180E880936A0004C098
:101CE000AE81A21708F0A22FA093610071C080916D
:101CF0006A0087FF6DC080916200813019F4809383
:101D0000700064C0823009F061C0919880916F00CA
:101D1000882371F4DE0111962981FD013196119617
:101D20003C914181EF01229650E0962F975008C0D8
:101D300020916B0030916C0040916D0050916E00CD
:101D4000792F780F70936F00692F669513E0B1E0DB
:101D5000A5E0C9018F739070892B49F4F894F901BB
:101D600010935700E895789407B600FCFDCFF894DF
:101D700088819981F9010C01B0935700E8951124ED
:101D800078942E5F3F4F4F4F5F4FC9018F73907014
:101D9000892B51F4F894F9013297A0935700E895F4
:101DA000789407B600FCFDCF615011F02296D1CF98
:101DB00020936B0030936C0040936D0050936E0045
:101DC000919A77FF05C08FEF8093620010926100B7
:101DD000109283008091600084FF49C0809161006F
:101DE0008F3F09F444C0182F893008F018E0811B98
:101DF000809361008091730098E889278093730035
:101E0000112341F1209181003091820080916A007C
:101E100086FF0DC0A4E7B0E080E090E0F901E80F94
:101E2000F91FE491ED9301961817C1F708C0912F9F
:101E3000D901E4E7F0E08D9181939150E1F71150E1
:101E4000812F90E01F5F0196820F931F9093820075
:101E50008093810084E790E0612F50DD612F6C5FFB
:101E60006C3019F08FEF809361006093600094E113
:101E700086B3837031F49150D9F710928400109298
:101E80007E00DF91CF911F9108951F9317BA88E3C9
:101E900088BB14BA8FE785BB83E081BB83EF82BB2D
:101EA00085E08EBD88ED96EF5ADE80B3807F80336B
:101EB00019F51AE008C091988CE69BEF50DE919AD4
:101EC0008CE69BEF4CDE1150B0F781E08BBF82E0D7
:101ED0008BBF85B7836085BF8BB780648BBF7894D9
:101EE000BA9AC29A46DE809170008823D9F310E036
:101EF00001C03FDE1150E9F7F89417BA88E388BBB8
:101F000081E180935700E89581E08BBF1BBEE09193
:101F10007100F09172000995F894FFCF5AFFFF010C
:101F2000400000200000FFFFFFFFFFFFFFFFFFFF5B
:101F3000FFFFFFFFFFFFFFFFFFFFFFFFFFFFFFFFB1
:101F4000FFFFFFFFFFFFFFFFFFFFFFFFFFFFFFFFA1
:101F5000FFFFFFFFFFFFFFFFFFFFFFFFFFFFFFFF91
:101F6000FFFFFFFFFFFFFFFFFFFFFFFFFFFFFFFF81
:101F7000FFFFFFFFFFFFFFFFFFFFFFFFFFFFFFFF71
:101F8000FFFFFFFFFFFFFFFFFFFFFFFFFFFFFFFF61
:101F9000FFFFFFFFFFFFFFFFFFFFFFFFFFFFFFFF51
:101FA000FFFFFFFFFFFFFFFFFFFFFFFFFFFFFFFF41
:101FB000FFFFFFFFFFFFFFFFFFFFFFFFFFFFFFFF31
:101FC000FFFFFFFFFFFFFFFFFFFFFFFFFFFFFFFF21
:101FD000FFFFFFFFFFFFFFFFFFFFFFFFFFFFFFFF11
:101FE000FFFFFFFFFFFFFFFFFFFFFFFFFFFFFFFF01
:101FF000FFFFFFFFFFFFFFFFFFFFFFFFFFFFFFFFF1
:00000001FF
