:100000000C94C5010C94EE050C94E0010C94E001F5
:100010000C94E0010C94E0010C94E0010C94E001DC
:100020000C94E0010C94E0010C94B3020C941303C3
:100030000C94E0010C94E0010C94E0010C94E001BC
:100040000C94E0010C94E0010C94E0010C94E001AC
:100050000C94E0010C94E0010C94E0010C94E0019C
:100060000C94E0010C94E0010C94E0010C94E0018C
:100070000C94E0010C94E0010C94E0010C94E0017C
:100080000C94E0010C94E0010C94E0010C94E0016C
:100090000C94E0010C94E0010001500101120002F7
:1000A0000C01012200211E0101090022B802016E8B
:1000B00000016201011200020C01012200211E0157
:1000C00001090022B802016E000174010112000250
:1000D0002E010122002140010109002226030164B2
:1000E0000003B40201040103820201320203000092
:1000F000020A0303340201440403E201015205032E
:100100008601015C00000001C10600000902220016
:1001100001010080320904000001030000000921F0
:1001200011010001226E0007058403080002090284
:1001300022000101008032090400000103000000D8
:10014000092111010001226400070584030800024F
:1001500012010002000000405E04050000040105D9
:10016000020112010002000000405E0404000004CD
:100170000104020112010002000000405E040200BE
:100180000004010302015C034D006900630072007A
:100190006F0073006F006600740020005300690058
:1001A00064006500570069006E006400650072001D
:1001B000200046006F0072006300650020004600CA
:1001C0006500650064006200610063006B00200050
:1001D000500072006F0020002800550053004200BC
:1001E000290052034D006900630072006F00730024
:1001F0006F00660074002000530069006400650011
:10020000570069006E006400650072002000500015
:100210007200650063006900730069006F006E0082
:100220002000500072006F0020002800550053008D
:100230004200290044034D006900630072006F0012
:1002400073006F00660074002000530069006400B2
:100250006500570069006E006400650072002000B0
:10026000330044002000500072006F00200028007E
:1002700055005300420029000A03300033003300C8
:10028000330032034400650074006C0065006600B2
:1002900020003C004700720065006E0064006500AD
:1002A0006C003E0020004D00750065006C006C0085
:1002B000650072000403090405010904A101090194
:1002C000A1009502750A1600FE26FF01350046FFC3
:1002D000030930093181029501750415002507468F
:1002E0003B01651409398142750615E0251F452E2D
:1002F0000935810295047501150025014501650048
:10030000A40509190129048102C0950519052909C7
:100310008102B49501750715C0253F457F093681D7
:100320000275028101C005010904A1010901A100B2
:100330009502750A1600FE26FF01350046FF03A44C
:10034000093009318102950175091600FF26FF0069
:10035000452E651409358102750415002507463BB5
:1003600001093981429504750125014501650005A2
:1003700009190129048102C0190529088102B495CF
:10038000010936810275058101C011241FBECFEF1E
:10039000D0E2DEBFCDBF14BE88E10FB6F8948093E3
:1003A0006000109260000FBE21E0A0E0B1E001C04B
:1003B0001D92AE36B207E1F70E9440070C943B084D
:1003C0000C940000442351F0FB01259134914150DD
:1003D0002817390731F06A5F7F4FF4CF80E090E053
:1003E0000895CB010895CF92DF92EF92FF920F9381
:1003F0001F93CF93DF9300D01F92CDB7DEB78C0150
:100400008EEFE82E8091E800982F9570D9F382FD49
:100410002FC0262F613408F020E4F22E6801FA94F0
:100420008FEFF816E9F0411103C0F601808104C096
:10043000413029F4F60184918093F1000DC04230DF
:1004400059F4C60129834B836A830E94250880934F
:10045000F1006A814B812981FFEFCF1ADF0ADFCFDC
:10046000020F111DE092E800621B61F6203451F288
:100470000F900F900F90DF91CF911F910F91FF90F0
:10048000EF90DF90CF900895CF93DF9380E090E0DE
:100490000E9425088A30B1F481E88093D70080EA71
:1004A0008093D80086E189BD09B400FEFDCF80E9C4
:1004B0008093D8001092E00089E08093E200DF9101
:1004C000CF910895C0E0D0E0FE01E858FD4F64915F
:1004D000CE010E942D082196CA30D105A9F7DCCFA4
:1004E0009FB7F89480915A01882321F020915B01F5
:1004F00081E0211180E09FBF08959FB7F89480911B
:100500005A01882321F080915B01882319F09FBF55
:1005100080E0089584E08093E9008091E80085FB05
:10052000882780F99FBF91E0892708952FB7F89415
:1005300030915A01332321F030915B01332319F0BC
:100540002FBF80E0089534E03093E900FC01615052
:1005500020F081918093F100FACF8AE18093E80046
:100560002FBF81E008951F920F920FB60F921124B2
:100570008F939F938091E1001092E10083FF10C060
:100580001092E90081E08093EB001092EC0082E38E
:100590008093ED0088E08093F00010925A013AC0F9
:1005A00090915A019923C1F180FF19C09091E20006
:1005B00090FF15C09091E2009E7F9093E200909191
:1005C000E20090619093E2009091D8009062909345
:1005D000D80099B59D7F99BD91E090935B0184FF10
:1005E0001BC08091E20084FF17C089B5826089BD7D
:1005F00009B400FEFDCF8091D8008F7D8093D80094
:100600008091E20081608093E2008091E2008F7E21
:100610008093E20010925B019F918F910F900FBE2B
:100620000F901F9018951F920F920FB60F921124E2
:100630000BB60F920F931F932F933F934F935F939C
:100640006F937F938F939F93AF93BF93CF93DF93DA
:10065000EF93FF931092E9008091E80083FF0AC1B5
:100660003091F1002091F100C091F1008091F100F2
:10067000D0E0D82B8091F1004091F1000091F10081
:100680001091F10042EF4093E800263009F039C0A4
:1006900046E060EE70E0CE010E94E2010097D1F4E6
:1006A00080916301813021F444E068EC70E00CC07B
:1006B000823021F444E060EB70E006C0833009F042
:1006C000D9C044E068E970E0CE010E94E2010097E1
:1006D00009F4D0C0602F70E0712BFC013596549165
:1006E0009B012227232B09F06FEFFC0134964491E4
:1006F0000296FC0185919491561708F091C0652FE0
:100700008FC0253059F48EEF8093E8008091E80087
:1007100080FFFCCFC068C093E300AFC0293049F52B
:10072000311148C08EEF8093E800C0935A0184E0F5
:1007300091E041E04093E9009C012F5F3F4FFC01B5
:1007400054915093EB00552359F0F90124912093D3
:10075000EC009C012D5F3F4F319684918093ED001A
:100760004F5F473011F0C901E5CF8EE78093EA0073
:1007700042C0283041F4303809F07CC080915A01E1
:100780008093F10013C0211115C0323851F48093C9
:10079000E9008091EB0085FB882780F91092E90041
:1007A00001C080E08093F1001092F1008EEF809301
:1007B000E80063C0422F4D7F413051F53230F1F4F3
:1007C000209789F58F779FEF980F963060F59EEF11
:1007D0009093E8008093E900233009F44BC099E13D
:1007E0009093EB0021E030E0082E01C0220F0A9424
:1007F000EAF72093EA001092EA003FC0213041F46A
:10080000313AC1F540E0609164018CE591E008C0A7
:10081000223069F4313A71F540E061E08DE691E013
:100820000E94F3012AC0213029F1223019F12A3027
:1008300009F53132F9F48EEF8093E800CD2FDD27F2
:10084000209719F41092650112C080916D018823E0
:1008500041F02091650190E0821B91098C179D0762
:1008600014F081E002C08C2F821B80936501C0933D
:100870006D0103C081E28093EB00FF91EF91DF9166
:10088000CF91BF91AF919F918F917F916F915F9128
:100890004F913F912F911F910F910F900BBE0F9091
:1008A0000FBE0F901F90189523B5216023BD909324
:1008B00085008093840081E086BBB09BFECF0895C5
:1008C00093B5916093BD86BD81E085BBA89BFECFAB
:1008D00008952498259884EF0E946004249A259A0C
:1008E00008955E9A81EC9FEF0E9454045E9883E81D
:1008F0009FEF0C945404809101018095880F8E71B4
:10090000E0E6F1E09081917E892B80830895EFE409
:10091000F1E090E02191822F8295820F980F81E083
:10092000E735F807B9F79F7081E009F080E0089596
:10093000E1E5F1E081819081892792818927938186
:1009400089279481892795818927282F22952F70BF
:100950002827922F969596959227892F86958927F5
:1009600081700895FF920F931F93CF93DF9340E818
:1009700040BF209178003091790081E090E001C083
:10098000880F2A95EAF7846C8093640089E080934D
:10099000650011B88FEF82B914B89FEC95B917B8FC
:1009A00088B990E49AB98BB91DB88EB910BA81BBD9
:1009B00080E00FB6F89440936100809361000FBE11
:1009C00083E085BD95E090938100809369008BEC76
:1009D00093EF0E9454045E9889B18F70833011F4B4
:1009E0000C9400FEC6E0D8E00E9471048BEC93EFFB
:1009F0000E9454046EE780E00E94F5060E94710494
:100A00008091590180915901813121F080915901E2
:100A1000813399F519B100915901809159016EE71F
:100A20009C2F981B892F0E94F50683E89FEF0E9458
:100A30005404F090590160E180E00E94F50688239B
:100A400009F46CC00E949804882309F467C08F2DB4
:100A5000801B883211F482E003C08E3041F483E0C1
:100A60008093630181E591E00E943B0659C08111AA
:100A700055C01F701F3099F7EECF80915901811139
:100A800024C0E8980E9469048DED0E9460040E94D1
:100A9000690488E20E9460040E94690482E90E945D
:100AA00060040E94690481EC9FEF0E9454046EE789
:100AB00080E00E94270780915901882379F1809175
:100AC000590181EC9FEF0E945404809159018034B8
:100AD00079F4609159018091590160569D2F981BBE
:100AE000892F0E94270783E89FEF0E94540404C0C7
:100AF00080915901823491F466E180E00E942707D9
:100B0000882361F00E948704882341F08FE491E0FC
:100B10000E94880681E08093630102C0E89864CF58
:100B2000E898F8948FE080930101DF91CF911F91B5
:100B30000F91FF90089580916301813041F489B154
:100B40008093010166E180E00E94270704C060E114
:100B500080E00E94F506E898811115C0809100019F
:100B60008F5F809300018B3040F0F89481E0809398
:100B7000E00080E28093D800FFCF80916301813054
:100B8000C1F40C947B0410920001809163018130C8
:100B900041F40E9487048823A1F38FE491E00C9430
:100BA00088060E949804882321F081E591E00C9446
:100BB0003B0608959091640180E0915070F0E92F18
:100BC000F0E0DF01A45ABE4F2C91EA59FE4F30816C
:100BD000321799F3208381E0F0CF08955F935FB7D8
:100BE0005F9357EE56BD4F93AF93BF93B0915801AB
:100BF000A091570150915901452F53955093590198
:100C000059B15295507E477069F04530B9F0423085
:100C100069F04330F1F04630E9F04130E1F0443022
:100C2000D9F01BC0529556955E931AC0550F4C9142
:100C3000542B5C935527551F5E9312C057FB550FDD
:100C4000550F4C91542B5C935527551F51F95E93CA
:100C500007C056955695569556954C91542B5C93D6
:100C6000A0935701B0935801BF91AF914F915F91FD
:100C70005FBF5F911895DC0154E0A50F5C91509522
:100C800050FB5095A1503C913695579550935C017F
:100C900042E0340F33705C91A1504C9146955795CA
:100CA0005C7F532B50935D0138E0430F4F70A2508F
:100CB0005C91550F550F5051507F542B50935E014E
:100CC0003C9142E0340F3370A3954C91407F342B1C
:100CD0003295330F330F54E0A50F5C915095569524
:100CE00037955695379530935F0156F9A3504C913F
:100CF00045FB57F950936001A1505C9138E0530FC8
:100D00005F70440F551F440F551F509361010895A4
:100D1000DC0145E0A40F5C91A395A3953C91387349
:100D2000330F3295550F369557954EEF340F33707C
:100D300050935C014C914770A3505C91550F4695C0
:100D400057952EEF420F4370550F441F550F441F08
:100D5000532B50935D01342FA2505C91A3954C917D
:100D60004871550F440F429546955795409540FB65
:100D70005295452F407F432B40935E015F7054F99D
:100D8000352FA3505C91507747E0A40F4C9146FB60
:100D900057F9505157FB550F532B50935F01332791
:100DA00030F9AA955C91A3504C9146FB57F95095A8
:100DB0004427550F441F532B50936001342FA250EA
:100DC0005C91A395A3954C914770550F4695579507
:100DD0002EEF420F437057FB550F532B5093610179
:100DE000440F40F9409362010895482F362F882719
:100DF000F894E09AE89A2227489B2FEF51E053BDE0
:100E00005CE956BDA89A2093590157E550935701C4
:100E100051E05093580178942498259850E05A95C1
:100E2000F1F7249A259A50915901521719F4A89B69
:100E3000FACF089550915901521B250F231728F41A
:100E400044238AF7450F7AF3E7CF83950895CDDFE2
:100E50008823A9F050915901563189F4F894552707
:100E600050935901509157014091580131E0530F6F
:100E70003327431F509357014093580178940895A6
:100E8000CF93DF931F92CDB7DEB70E94B20480915B
:100E90006301813011F487E001C086E08093640132
:100EA0000E944402789483E08093810085E085BDB0
:100EB0000E94DA05C82E91E0212C312C08E11CEFAC
:100EC000DD24D39431EDB32E4AE0A42E58E1952EC3
:100ED000812C63E0762E75E0672EE8E1EE2EF12C92
:100EE000FDE05F2EA89599830E9470029981882366
:100EF00009F460C0992309F180E8982D0FB6F894A1
:100F000080936100909361000FBE80916400877DA3
:100F10008093640080916D0180936501B6BCD5BA61
:100F20001093850000938400D6BA0FB6F894A89564
:100F3000E09260000FBE50926000A89B0CC075BC90
:100F40000E949B0565BCB6BCD5BA0E94DA05882311
:100F500011F0CC24C394B09903C0CC2049F112C045
:100F60001093850000938400D6BA8091650181506A
:100F7000809365018111F1CF80916D01882369F320
:100F8000CC24C3940E947D02811112C05E9A6091AC
:100F900064018CE591E00E94960280916D0180933E
:100FA00065011093850000938400D6BA5E98C12C29
:100FB00090E098CF80915B01882309F43EC09111A5
:100FC0001AC00FB6F89490926000109260000FBEA5
:100FD00080916400886280936400E0E8FD2D0FB684
:100FE000F894E0936100F09361000FBEA092650158
:100FF00022242A94322C81E0281A31082114310449
:1010000011F091E06FCF809165018150809365016F
:10101000882329F091E022242A94322C63CF5E9B0E
:1010200004C0A09265015E98F5CFD09265015E9AEA
:1010300091E08EE1282E312C55CF1093850000933E
:101040008400D6BAB6BCD5BA4DCFF999FECF92BDC1
:1010500081BDF89A992780B50895262FF999FECF7A
:101060001FBA92BD81BD20BD0FB6F894FA9AF99AC5
:0A1070000FBE01960895F894FFCF1B
:00000001FF
